{
  "contractName": "EthPassport",
  "abi": [
    {
      "inputs": [],
      "payable": false,
      "stateMutability": "nonpayable",
      "type": "constructor"
    },
    {
      "anonymous": false,
      "inputs": [
        {
          "indexed": false,
          "internalType": "uint256",
          "name": "head",
          "type": "uint256"
        },
        {
          "indexed": false,
          "internalType": "enum EthPassport.Direction",
          "name": "direction",
          "type": "uint8"
        },
        {
          "indexed": false,
          "internalType": "uint256",
          "name": "temp",
          "type": "uint256"
        },
        {
          "indexed": false,
          "internalType": "address",
          "name": "updatedBy",
          "type": "address"
        },
        {
          "indexed": false,
          "internalType": "uint256",
          "name": "next",
          "type": "uint256"
        }
      ],
      "name": "EPUpdateTravelHistory",
      "type": "event"
    },
    {
      "anonymous": false,
      "inputs": [
        {
          "indexed": true,
          "internalType": "address",
          "name": "previousOwner",
          "type": "address"
        },
        {
          "indexed": true,
          "internalType": "address",
          "name": "newOwner",
          "type": "address"
        }
      ],
      "name": "OwnershipTransferred",
      "type": "event"
    },
    {
      "constant": true,
      "inputs": [],
      "name": "government",
      "outputs": [
        {
          "internalType": "contract Government",
          "name": "",
          "type": "address"
        }
      ],
      "payable": false,
      "stateMutability": "view",
      "type": "function"
    },
    {
      "constant": true,
      "inputs": [],
      "name": "head",
      "outputs": [
        {
          "internalType": "uint256",
          "name": "",
          "type": "uint256"
        }
      ],
      "payable": false,
      "stateMutability": "view",
      "type": "function"
    },
    {
      "constant": true,
      "inputs": [],
      "name": "isOwner",
      "outputs": [
        {
          "internalType": "bool",
          "name": "",
          "type": "bool"
        }
      ],
      "payable": false,
      "stateMutability": "view",
      "type": "function"
    },
    {
      "constant": true,
      "inputs": [],
      "name": "owner",
      "outputs": [
        {
          "internalType": "address",
          "name": "",
          "type": "address"
        }
      ],
      "payable": false,
      "stateMutability": "view",
      "type": "function"
    },
    {
      "constant": false,
      "inputs": [],
      "name": "renounceOwnership",
      "outputs": [],
      "payable": false,
      "stateMutability": "nonpayable",
      "type": "function"
    },
    {
      "constant": false,
      "inputs": [
        {
          "internalType": "address",
          "name": "newOwner",
          "type": "address"
        }
      ],
      "name": "transferOwnership",
      "outputs": [],
      "payable": false,
      "stateMutability": "nonpayable",
      "type": "function"
    },
    {
      "constant": true,
      "inputs": [
        {
          "internalType": "uint256",
          "name": "",
          "type": "uint256"
        }
      ],
      "name": "travelHistories",
      "outputs": [
        {
          "internalType": "uint256",
          "name": "next",
          "type": "uint256"
        },
        {
          "internalType": "uint256",
          "name": "timestamp",
          "type": "uint256"
        },
        {
          "internalType": "enum EthPassport.Direction",
          "name": "direction",
          "type": "uint8"
        },
        {
          "internalType": "uint256",
          "name": "temp",
          "type": "uint256"
        },
        {
          "internalType": "address",
          "name": "updatedBy",
          "type": "address"
        }
      ],
      "payable": false,
      "stateMutability": "view",
      "type": "function"
    },
    {
      "constant": true,
      "inputs": [],
      "name": "getParentAddress",
      "outputs": [
        {
          "internalType": "address",
          "name": "",
          "type": "address"
        }
      ],
      "payable": false,
      "stateMutability": "view",
      "type": "function"
    },
    {
      "constant": true,
      "inputs": [],
      "name": "getCountry",
      "outputs": [
        {
          "internalType": "uint16",
          "name": "",
          "type": "uint16"
        }
      ],
      "payable": false,
      "stateMutability": "view",
      "type": "function"
    },
    {
      "constant": true,
      "inputs": [],
      "name": "isHealthy",
      "outputs": [
        {
          "internalType": "bool",
          "name": "",
          "type": "bool"
        }
      ],
      "payable": false,
      "stateMutability": "view",
      "type": "function"
    },
    {
      "constant": false,
      "inputs": [
        {
          "internalType": "bool",
          "name": "_healthy",
          "type": "bool"
        }
      ],
      "name": "setHealth",
      "outputs": [],
      "payable": false,
      "stateMutability": "nonpayable",
      "type": "function"
    },
    {
      "constant": false,
      "inputs": [
        {
          "internalType": "enum EthPassport.Direction",
          "name": "_direction",
          "type": "uint8"
        },
        {
          "internalType": "uint256",
          "name": "_temp",
          "type": "uint256"
        }
      ],
      "name": "updateTravelHistory",
      "outputs": [],
      "payable": false,
      "stateMutability": "nonpayable",
      "type": "function"
    },
    {
      "constant": false,
      "inputs": [
        {
          "internalType": "uint256",
          "name": "_id",
          "type": "uint256"
        }
      ],
      "name": "getTravelHistoryWithId",
      "outputs": [
        {
          "internalType": "uint256",
          "name": "",
          "type": "uint256"
        },
        {
          "internalType": "uint256",
          "name": "",
          "type": "uint256"
        },
        {
          "internalType": "enum EthPassport.Direction",
          "name": "",
          "type": "uint8"
        },
        {
          "internalType": "uint256",
          "name": "",
          "type": "uint256"
        },
        {
          "internalType": "address",
          "name": "",
          "type": "address"
        }
      ],
      "payable": false,
      "stateMutability": "nonpayable",
      "type": "function"
    },
    {
      "constant": true,
      "inputs": [],
      "name": "getHeadId",
      "outputs": [
        {
          "internalType": "uint256",
          "name": "",
          "type": "uint256"
        }
      ],
      "payable": false,
      "stateMutability": "view",
      "type": "function"
    }
  ],
  "bytecode": "0x6080604052600060075534801561001557600080fd5b50600061002661011760201b60201c565b9050806000806101000a81548173ffffffffffffffffffffffffffffffffffffffff021916908373ffffffffffffffffffffffffffffffffffffffff1602179055508073ffffffffffffffffffffffffffffffffffffffff16600073ffffffffffffffffffffffffffffffffffffffff167f8be0079c531659141344cd1fd0a4f28419497f9722a3daafe3b4186f6b6457e060405160405180910390a3506100d261011f60201b60201c565b600460006101000a81548173ffffffffffffffffffffffffffffffffffffffff021916908373ffffffffffffffffffffffffffffffffffffffff160217905550610148565b600033905090565b60008060009054906101000a900473ffffffffffffffffffffffffffffffffffffffff16905090565b610d3e806101576000396000f3fe608060405234801561001057600080fd5b50600436106100ea5760003560e01c80639afb7b2f1161008c578063aa871e5811610066578063aa871e5814610340578063da43d6b11461035e578063e4020804146103f6578063f2fde38b14610418576100ea565b80639afb7b2f146102525780639e0c3ead146102825780639fdf748f146102a8576100ea565b80638da5cb5b116100c85780638da5cb5b1461017e5780638f32d59b146101c85780638f7dcfa3146101ea57806391fa055514610208576100ea565b80632672f526146100ef57806363f1209114610139578063715018a614610174575b600080fd5b6100f761045c565b604051808273ffffffffffffffffffffffffffffffffffffffff1673ffffffffffffffffffffffffffffffffffffffff16815260200191505060405180910390f35b6101726004803603604081101561014f57600080fd5b81019080803560ff16906020019092919080359060200190929190505050610482565b005b61017c61063c565b005b610186610775565b604051808273ffffffffffffffffffffffffffffffffffffffff1673ffffffffffffffffffffffffffffffffffffffff16815260200191505060405180910390f35b6101d061079e565b604051808215151515815260200191505060405180910390f35b6101f26107fc565b6040518082815260200191505060405180910390f35b610210610802565b604051808273ffffffffffffffffffffffffffffffffffffffff1673ffffffffffffffffffffffffffffffffffffffff16815260200191505060405180910390f35b6102806004803603602081101561026857600080fd5b8101908080351515906020019092919050505061082c565b005b61028a6108d8565b604051808261ffff1661ffff16815260200191505060405180910390f35b6102d4600480360360208110156102be57600080fd5b8101908080359060200190929190505050610982565b604051808681526020018581526020018460038111156102f057fe5b60ff1681526020018381526020018273ffffffffffffffffffffffffffffffffffffffff1673ffffffffffffffffffffffffffffffffffffffff1681526020019550505050505060405180910390f35b610348610a3d565b6040518082815260200191505060405180910390f35b61038a6004803603602081101561037457600080fd5b8101908080359060200190929190505050610a47565b604051808681526020018581526020018460038111156103a657fe5b60ff1681526020018381526020018273ffffffffffffffffffffffffffffffffffffffff1673ffffffffffffffffffffffffffffffffffffffff1681526020019550505050505060405180910390f35b6103fe610aaa565b604051808215151515815260200191505060405180910390f35b61045a6004803603602081101561042e57600080fd5b81019080803573ffffffffffffffffffffffffffffffffffffffff169060200190929190505050610ac1565b005b600460009054906101000a900473ffffffffffffffffffffffffffffffffffffffff1681565b61048a610c93565b6040518060a0016040528060065481526020014281526020018460038111156104af57fe5b81526020018381526020013373ffffffffffffffffffffffffffffffffffffffff16815250905080600860006007548152602001908152602001600020600082015181600001556020820151816001015560408201518160020160006101000a81548160ff0219169083600381111561052457fe5b02179055506060820151816003015560808201518160040160006101000a81548173ffffffffffffffffffffffffffffffffffffffff021916908373ffffffffffffffffffffffffffffffffffffffff16021790555090505060076000815480929190600101919050556006819055507fcbdee6ac53304f3bcb3d37e2d69564f02d248a235ce232e511948250c74b5b8c6006548260400151836060015184608001518560000151604051808681526020018560038111156105e257fe5b60ff1681526020018481526020018373ffffffffffffffffffffffffffffffffffffffff1673ffffffffffffffffffffffffffffffffffffffff1681526020018281526020019550505050505060405180910390a1505050565b61064461079e565b6106b6576040517f08c379a00000000000000000000000000000000000000000000000000000000081526004018080602001828103825260208152602001807f4f776e61626c653a2063616c6c6572206973206e6f7420746865206f776e657281525060200191505060405180910390fd5b600073ffffffffffffffffffffffffffffffffffffffff166000809054906101000a900473ffffffffffffffffffffffffffffffffffffffff1673ffffffffffffffffffffffffffffffffffffffff167f8be0079c531659141344cd1fd0a4f28419497f9722a3daafe3b4186f6b6457e060405160405180910390a360008060006101000a81548173ffffffffffffffffffffffffffffffffffffffff021916908373ffffffffffffffffffffffffffffffffffffffff160217905550565b60008060009054906101000a900473ffffffffffffffffffffffffffffffffffffffff16905090565b60008060009054906101000a900473ffffffffffffffffffffffffffffffffffffffff1673ffffffffffffffffffffffffffffffffffffffff166107e0610b47565b73ffffffffffffffffffffffffffffffffffffffff1614905090565b60065481565b6000600460009054906101000a900473ffffffffffffffffffffffffffffffffffffffff16905090565b61083461079e565b6108a6576040517f08c379a00000000000000000000000000000000000000000000000000000000081526004018080602001828103825260208152602001807f4f776e61626c653a2063616c6c6572206973206e6f7420746865206f776e657281525060200191505060405180910390fd5b80600460146101000a81548160ff0219169083151502179055506000151581151514156108d557426005819055505b50565b6000600460009054906101000a900473ffffffffffffffffffffffffffffffffffffffff1673ffffffffffffffffffffffffffffffffffffffff16639e0c3ead6040518163ffffffff1660e01b815260040160206040518083038186803b15801561094257600080fd5b505afa158015610956573d6000803e3d6000fd5b505050506040513d602081101561096c57600080fd5b8101908080519060200190929190505050905090565b6000806000806000600860008781526020019081526020016000206000015460086000888152602001908152602001600020600101546008600089815260200190815260200160002060020160009054906101000a900460ff16600860008a815260200190815260200160002060030154600860008b815260200190815260200160002060040160009054906101000a900473ffffffffffffffffffffffffffffffffffffffff169450945094509450945091939590929450565b6000600654905090565b60086020528060005260406000206000915090508060000154908060010154908060020160009054906101000a900460ff16908060030154908060040160009054906101000a900473ffffffffffffffffffffffffffffffffffffffff16905085565b6000600460149054906101000a900460ff16905090565b610ac961079e565b610b3b576040517f08c379a00000000000000000000000000000000000000000000000000000000081526004018080602001828103825260208152602001807f4f776e61626c653a2063616c6c6572206973206e6f7420746865206f776e657281525060200191505060405180910390fd5b610b4481610b4f565b50565b600033905090565b600073ffffffffffffffffffffffffffffffffffffffff168173ffffffffffffffffffffffffffffffffffffffff161415610bd5576040517f08c379a0000000000000000000000000000000000000000000000000000000008152600401808060200182810382526026815260200180610ce46026913960400191505060405180910390fd5b8073ffffffffffffffffffffffffffffffffffffffff166000809054906101000a900473ffffffffffffffffffffffffffffffffffffffff1673ffffffffffffffffffffffffffffffffffffffff167f8be0079c531659141344cd1fd0a4f28419497f9722a3daafe3b4186f6b6457e060405160405180910390a3806000806101000a81548173ffffffffffffffffffffffffffffffffffffffff021916908373ffffffffffffffffffffffffffffffffffffffff16021790555050565b6040518060a00160405280600081526020016000815260200160006003811115610cb957fe5b815260200160008152602001600073ffffffffffffffffffffffffffffffffffffffff168152509056fe4f776e61626c653a206e6577206f776e657220697320746865207a65726f2061646472657373a265627a7a72315820514b2d19d76175c257bd116231e6136b8fe2274bc2ed548bba69227cd6c52c7b64736f6c63430005100032",
  "source": "pragma solidity ^0.5.0;\nimport \"../node_modules/@openzeppelin/contracts/ownership/Ownable.sol\";\n\nimport \"./Travlr.sol\";\nimport \"./Government.sol\";\n\ncontract EthPassport is Ownable {\n  using Roles for Roles.Role;\n  Roles.Role internal _government;\n  Roles.Role internal _immigration;\n  Roles.Role internal _hotel;\n    \n  Government public government; //eth address assigned to passport\n  bool healthy;\n  uint lastUnhealthy; //timestamp of last recorded unhealthy: to track even after patient recovers\n\n  constructor() public {\n    //makes parent the first owner who created the contract not new owner who took over contract\n    government = Government(owner());\n  }\n  \n  enum Direction { entry, exit, checkin, checkout }\n    \n  struct TravelHistory { //linkedlist of a EthPassport's Travel History\n    uint next; //next node in linked list\n    uint timestamp;\n    Direction direction;\n    uint temp;\n    address updatedBy;\n  }\n  \n  uint public head;\n  uint id = 0;\n  mapping (uint => TravelHistory) public travelHistories;\n  event EPUpdateTravelHistory(uint head, Direction direction, uint temp, address updatedBy, uint next);\n\n  function getParentAddress() public view returns (address) {\n    return address(government);\n  }\n  \n  function getCountry() public view returns (uint16){\n      return government.getCountry();\n  }\n  \n  function isHealthy() public view returns (bool){\n      return healthy;\n  }\n  \n  function setHealth(bool _healthy) public onlyOwner {\n      healthy = _healthy;\n      if (_healthy == false){\n          lastUnhealthy = now;\n      }\n  }\n  \n  function updateTravelHistory(Direction _direction, uint _temp) public { //TODO: immigration or hotel only\n    TravelHistory memory travelHistory = TravelHistory(head,now,_direction,_temp, msg.sender);\n    travelHistories[id] = travelHistory;\n    head = id++;\n    emit EPUpdateTravelHistory(head,travelHistory.direction, travelHistory.temp, travelHistory.updatedBy, travelHistory.next);\n  }\n  \n  function getTravelHistoryWithId(uint _id) public returns (uint,uint,Direction,uint,address){ //TODO: govt only\n    return (travelHistories[_id].next,travelHistories[_id].timestamp,travelHistories[_id].direction,travelHistories[_id].temp, travelHistories[_id].updatedBy);\n  }\n\n  \n  function getHeadId() public view returns (uint) { //TODO: govt only\n    return head;\n  }\n  \n  // has error\n  // modifier onlyImmigrationOrHotel(){\n  //     require(_immigration.has(msg.sender)||_hotel.has(msg.sender), \"Requires Immigration or Hotel Role\");\n  //     _;\n  // }\n  \n  //   modifier onlyGovernment() {\n  //     require(_government.has(msg.sender),\"Requires Government Role\");\n  //     _;\n  // }\n  \n}",
  "sourcePath": "/Users/katrina/Desktop/IS4302/Project/code/contracts/EthPassport.sol",
  "compiler": {
    "name": "solc",
    "version": "0.5.16+commit.9c3226ce.Emscripten.clang"
  },
  "schemaVersion": "3.0.23",
  "updatedAt": "2020-03-31T13:59:47.081Z",
  "devdoc": {
    "methods": {
      "isOwner()": {
        "details": "Returns true if the caller is the current owner."
      },
      "owner()": {
        "details": "Returns the address of the current owner."
      },
      "renounceOwnership()": {
        "details": "Leaves the contract without owner. It will not be possible to call `onlyOwner` functions anymore. Can only be called by the current owner.     * NOTE: Renouncing ownership will leave the contract without an owner, thereby removing any functionality that is only available to the owner."
      },
      "transferOwnership(address)": {
        "details": "Transfers ownership of the contract to a new account (`newOwner`). Can only be called by the current owner."
      }
    }
  },
  "userdoc": {
    "methods": {}
  }
}