{
  "contractName": "Hotel",
  "abi": [
    {
      "inputs": [],
      "payable": false,
      "stateMutability": "nonpayable",
      "type": "constructor"
    },
    {
      "anonymous": false,
      "inputs": [
        {
          "indexed": true,
          "internalType": "address",
          "name": "previousOwner",
          "type": "address"
        },
        {
          "indexed": true,
          "internalType": "address",
          "name": "newOwner",
          "type": "address"
        }
      ],
      "name": "OwnershipTransferred",
      "type": "event"
    },
    {
      "anonymous": false,
      "inputs": [
        {
          "indexed": false,
          "internalType": "string",
          "name": "logmessage",
          "type": "string"
        }
      ],
      "name": "logmessage",
      "type": "event"
    },
    {
      "constant": true,
      "inputs": [],
      "name": "government",
      "outputs": [
        {
          "internalType": "contract Government",
          "name": "",
          "type": "address"
        }
      ],
      "payable": false,
      "stateMutability": "view",
      "type": "function"
    },
    {
      "constant": true,
      "inputs": [],
      "name": "isOwner",
      "outputs": [
        {
          "internalType": "bool",
          "name": "",
          "type": "bool"
        }
      ],
      "payable": false,
      "stateMutability": "view",
      "type": "function"
    },
    {
      "constant": true,
      "inputs": [],
      "name": "owner",
      "outputs": [
        {
          "internalType": "address",
          "name": "",
          "type": "address"
        }
      ],
      "payable": false,
      "stateMutability": "view",
      "type": "function"
    },
    {
      "constant": false,
      "inputs": [],
      "name": "renounceOwnership",
      "outputs": [],
      "payable": false,
      "stateMutability": "nonpayable",
      "type": "function"
    },
    {
      "constant": false,
      "inputs": [
        {
          "internalType": "address",
          "name": "newOwner",
          "type": "address"
        }
      ],
      "name": "transferOwnership",
      "outputs": [],
      "payable": false,
      "stateMutability": "nonpayable",
      "type": "function"
    },
    {
      "constant": true,
      "inputs": [],
      "name": "getParentAddress",
      "outputs": [
        {
          "internalType": "address",
          "name": "",
          "type": "address"
        }
      ],
      "payable": false,
      "stateMutability": "view",
      "type": "function"
    },
    {
      "constant": true,
      "inputs": [],
      "name": "getCountry",
      "outputs": [
        {
          "internalType": "uint16",
          "name": "",
          "type": "uint16"
        }
      ],
      "payable": false,
      "stateMutability": "view",
      "type": "function"
    },
    {
      "constant": false,
      "inputs": [
        {
          "internalType": "address",
          "name": "_ethPassportAddress",
          "type": "address"
        },
        {
          "internalType": "enum EthPassport.Direction",
          "name": "_direction",
          "type": "uint8"
        },
        {
          "internalType": "uint8",
          "name": "_temp",
          "type": "uint8"
        }
      ],
      "name": "updateEthPassport",
      "outputs": [],
      "payable": false,
      "stateMutability": "nonpayable",
      "type": "function"
    }
  ],
  "bytecode": "0x608060405234801561001057600080fd5b50600061002161011260201b60201c565b9050806000806101000a81548173ffffffffffffffffffffffffffffffffffffffff021916908373ffffffffffffffffffffffffffffffffffffffff1602179055508073ffffffffffffffffffffffffffffffffffffffff16600073ffffffffffffffffffffffffffffffffffffffff167f8be0079c531659141344cd1fd0a4f28419497f9722a3daafe3b4186f6b6457e060405160405180910390a3506100cd61011a60201b60201c565b600160006101000a81548173ffffffffffffffffffffffffffffffffffffffff021916908373ffffffffffffffffffffffffffffffffffffffff160217905550610143565b600033905090565b60008060009054906101000a900473ffffffffffffffffffffffffffffffffffffffff16905090565b610840806101526000396000f3fe608060405234801561001057600080fd5b50600436106100885760003560e01c806391fa05551161005b57806391fa05551461014d5780639e0c3ead14610197578063d70408bb146101bd578063f2fde38b1461021b57610088565b80632672f5261461008d578063715018a6146100d75780638da5cb5b146100e15780638f32d59b1461012b575b600080fd5b61009561025f565b604051808273ffffffffffffffffffffffffffffffffffffffff1673ffffffffffffffffffffffffffffffffffffffff16815260200191505060405180910390f35b6100df610285565b005b6100e96103be565b604051808273ffffffffffffffffffffffffffffffffffffffff1673ffffffffffffffffffffffffffffffffffffffff16815260200191505060405180910390f35b6101336103e7565b604051808215151515815260200191505060405180910390f35b610155610445565b604051808273ffffffffffffffffffffffffffffffffffffffff1673ffffffffffffffffffffffffffffffffffffffff16815260200191505060405180910390f35b61019f61046f565b604051808261ffff1661ffff16815260200191505060405180910390f35b610219600480360360608110156101d357600080fd5b81019080803573ffffffffffffffffffffffffffffffffffffffff169060200190929190803560ff169060200190929190803560ff169060200190929190505050610519565b005b61025d6004803603602081101561023157600080fd5b81019080803573ffffffffffffffffffffffffffffffffffffffff169060200190929190505050610613565b005b600160009054906101000a900473ffffffffffffffffffffffffffffffffffffffff1681565b61028d6103e7565b6102ff576040517f08c379a00000000000000000000000000000000000000000000000000000000081526004018080602001828103825260208152602001807f4f776e61626c653a2063616c6c6572206973206e6f7420746865206f776e657281525060200191505060405180910390fd5b600073ffffffffffffffffffffffffffffffffffffffff166000809054906101000a900473ffffffffffffffffffffffffffffffffffffffff1673ffffffffffffffffffffffffffffffffffffffff167f8be0079c531659141344cd1fd0a4f28419497f9722a3daafe3b4186f6b6457e060405160405180910390a360008060006101000a81548173ffffffffffffffffffffffffffffffffffffffff021916908373ffffffffffffffffffffffffffffffffffffffff160217905550565b60008060009054906101000a900473ffffffffffffffffffffffffffffffffffffffff16905090565b60008060009054906101000a900473ffffffffffffffffffffffffffffffffffffffff1673ffffffffffffffffffffffffffffffffffffffff16610429610699565b73ffffffffffffffffffffffffffffffffffffffff1614905090565b6000600160009054906101000a900473ffffffffffffffffffffffffffffffffffffffff16905090565b6000600160009054906101000a900473ffffffffffffffffffffffffffffffffffffffff1673ffffffffffffffffffffffffffffffffffffffff16639e0c3ead6040518163ffffffff1660e01b815260040160206040518083038186803b1580156104d957600080fd5b505afa1580156104ed573d6000803e3d6000fd5b505050506040513d602081101561050357600080fd5b8101908080519060200190929190505050905090565b60008390508073ffffffffffffffffffffffffffffffffffffffff16633a4edce284846040518363ffffffff1660e01b81526004018083600381111561055b57fe5b60ff1681526020018260ff1660ff16815260200192505050600060405180830381600087803b15801561058d57600080fd5b505af11580156105a1573d6000803e3d6000fd5b505050507fd65613229dcae2ab4fe4ed0ef284e79c2cce44ad528ba81c620b7bb29ce7ce196040518080602001828103825260148152602001807f4574682050617373706f7274205570646174656400000000000000000000000081525060200191505060405180910390a150505050565b61061b6103e7565b61068d576040517f08c379a00000000000000000000000000000000000000000000000000000000081526004018080602001828103825260208152602001807f4f776e61626c653a2063616c6c6572206973206e6f7420746865206f776e657281525060200191505060405180910390fd5b610696816106a1565b50565b600033905090565b600073ffffffffffffffffffffffffffffffffffffffff168173ffffffffffffffffffffffffffffffffffffffff161415610727576040517f08c379a00000000000000000000000000000000000000000000000000000000081526004018080602001828103825260268152602001806107e66026913960400191505060405180910390fd5b8073ffffffffffffffffffffffffffffffffffffffff166000809054906101000a900473ffffffffffffffffffffffffffffffffffffffff1673ffffffffffffffffffffffffffffffffffffffff167f8be0079c531659141344cd1fd0a4f28419497f9722a3daafe3b4186f6b6457e060405160405180910390a3806000806101000a81548173ffffffffffffffffffffffffffffffffffffffff021916908373ffffffffffffffffffffffffffffffffffffffff1602179055505056fe4f776e61626c653a206e6577206f776e657220697320746865207a65726f2061646472657373a265627a7a72315820ec6de2a341ab938e2d55ed4b93fd2b82d2c083c68a3593fef376c6008d1b85f164736f6c63430005100032",
  "source": "pragma solidity ^0.5.0;\r\nimport \"../node_modules/@openzeppelin/contracts/access/Roles.sol\";\r\nimport \"../node_modules/@openzeppelin/contracts/ownership/Ownable.sol\";\r\n\r\nimport \"./Travlr.sol\";\r\nimport \"./Government.sol\";\r\nimport \"./EthPassport.sol\";\r\n\r\ncontract Hotel is Ownable {\r\n  Government public government;\r\n  //implemented in constructor later\r\n  uint256 lat;\r\n  uint256 long;\r\n  event logmessage(string logmessage);\r\n  \r\n  constructor () public {\r\n    //makes parent the first owner who created the contract not new owner who took over contract\r\n    government = Government(owner());\r\n  }\r\n  \r\n  function getParentAddress() public view returns (address) {\r\n    return address(government);\r\n  }\r\n  \r\n  function getCountry() public view returns (uint16){\r\n    return government.getCountry();\r\n  }\r\n  \r\n  function updateEthPassport(address _ethPassportAddress, EthPassport.Direction _direction, uint8 _temp) public {\r\n    EthPassport ethPassport = EthPassport(_ethPassportAddress);\r\n    ethPassport.updateTravelHistory(_direction, _temp);\r\n    emit logmessage(\"Eth Passport Updated\");\r\n  }\r\n}",
  "sourcePath": "/Users/katrina/Desktop/IS4302/Project/TravlrBackend/contracts/Hotel.sol",
  "compiler": {
    "name": "solc",
    "version": "0.5.16+commit.9c3226ce.Emscripten.clang"
  },
  "schemaVersion": "3.0.23",
  "updatedAt": "2020-04-07T13:13:13.817Z",
  "networkType": "ethereum",
  "devdoc": {
    "methods": {
      "isOwner()": {
        "details": "Returns true if the caller is the current owner."
      },
      "owner()": {
        "details": "Returns the address of the current owner."
      },
      "renounceOwnership()": {
        "details": "Leaves the contract without owner. It will not be possible to call `onlyOwner` functions anymore. Can only be called by the current owner.     * NOTE: Renouncing ownership will leave the contract without an owner, thereby removing any functionality that is only available to the owner."
      },
      "transferOwnership(address)": {
        "details": "Transfers ownership of the contract to a new account (`newOwner`). Can only be called by the current owner."
      }
    }
  },
  "userdoc": {
    "methods": {}
  }
}